{
	"data": {
		"bytecode": {
			"linkReferences": {},
			"object": "6060604052341561000f57600080fd5b6101f18061001e6000396000f300606060405260043610610078576000357c0100000000000000000000000000000000000000000000000000000000900463ffffffff1680634793504e1461007d57806353a454e0146100a05780635677abcc146100c35780636a270ba1146100e65780637d89f040146101095780639c16667c1461012c575b600080fd5b341561008857600080fd5b61009e6004808035906020019091905050610155565b005b34156100ab57600080fd5b6100c16004808035906020019091905050610173565b005b34156100ce57600080fd5b6100e46004808035906020019091905050610188565b005b34156100f157600080fd5b610107600480803590602001909190505061019d565b005b341561011457600080fd5b61012a60048080359060200190919050506101a7565b005b341561013757600080fd5b61013f6101bc565b6040518082815260200191505060405180910390f35b806002819055508060005481151561016957fe5b0460008190555050565b80600481905550806000540360008190555050565b80600181905550806000540260008190555050565b8060008190555050565b80600381905550806000540160008190555050565b600080549050905600a165627a7a72305820a1b5002cf07ada87f23431c26b9090da54bb0f2914fa1097f0963cb5b1d117a20029",
			"opcodes": "PUSH1 0x60 PUSH1 0x40 MSTORE CALLVALUE ISZERO PUSH2 0xF JUMPI PUSH1 0x0 DUP1 REVERT JUMPDEST PUSH2 0x1F1 DUP1 PUSH2 0x1E PUSH1 0x0 CODECOPY PUSH1 0x0 RETURN STOP PUSH1 0x60 PUSH1 0x40 MSTORE PUSH1 0x4 CALLDATASIZE LT PUSH2 0x78 JUMPI PUSH1 0x0 CALLDATALOAD PUSH29 0x100000000000000000000000000000000000000000000000000000000 SWAP1 DIV PUSH4 0xFFFFFFFF AND DUP1 PUSH4 0x4793504E EQ PUSH2 0x7D JUMPI DUP1 PUSH4 0x53A454E0 EQ PUSH2 0xA0 JUMPI DUP1 PUSH4 0x5677ABCC EQ PUSH2 0xC3 JUMPI DUP1 PUSH4 0x6A270BA1 EQ PUSH2 0xE6 JUMPI DUP1 PUSH4 0x7D89F040 EQ PUSH2 0x109 JUMPI DUP1 PUSH4 0x9C16667C EQ PUSH2 0x12C JUMPI JUMPDEST PUSH1 0x0 DUP1 REVERT JUMPDEST CALLVALUE ISZERO PUSH2 0x88 JUMPI PUSH1 0x0 DUP1 REVERT JUMPDEST PUSH2 0x9E PUSH1 0x4 DUP1 DUP1 CALLDATALOAD SWAP1 PUSH1 0x20 ADD SWAP1 SWAP2 SWAP1 POP POP PUSH2 0x155 JUMP JUMPDEST STOP JUMPDEST CALLVALUE ISZERO PUSH2 0xAB JUMPI PUSH1 0x0 DUP1 REVERT JUMPDEST PUSH2 0xC1 PUSH1 0x4 DUP1 DUP1 CALLDATALOAD SWAP1 PUSH1 0x20 ADD SWAP1 SWAP2 SWAP1 POP POP PUSH2 0x173 JUMP JUMPDEST STOP JUMPDEST CALLVALUE ISZERO PUSH2 0xCE JUMPI PUSH1 0x0 DUP1 REVERT JUMPDEST PUSH2 0xE4 PUSH1 0x4 DUP1 DUP1 CALLDATALOAD SWAP1 PUSH1 0x20 ADD SWAP1 SWAP2 SWAP1 POP POP PUSH2 0x188 JUMP JUMPDEST STOP JUMPDEST CALLVALUE ISZERO PUSH2 0xF1 JUMPI PUSH1 0x0 DUP1 REVERT JUMPDEST PUSH2 0x107 PUSH1 0x4 DUP1 DUP1 CALLDATALOAD SWAP1 PUSH1 0x20 ADD SWAP1 SWAP2 SWAP1 POP POP PUSH2 0x19D JUMP JUMPDEST STOP JUMPDEST CALLVALUE ISZERO PUSH2 0x114 JUMPI PUSH1 0x0 DUP1 REVERT JUMPDEST PUSH2 0x12A PUSH1 0x4 DUP1 DUP1 CALLDATALOAD SWAP1 PUSH1 0x20 ADD SWAP1 SWAP2 SWAP1 POP POP PUSH2 0x1A7 JUMP JUMPDEST STOP JUMPDEST CALLVALUE ISZERO PUSH2 0x137 JUMPI PUSH1 0x0 DUP1 REVERT JUMPDEST PUSH2 0x13F PUSH2 0x1BC JUMP JUMPDEST PUSH1 0x40 MLOAD DUP1 DUP3 DUP2 MSTORE PUSH1 0x20 ADD SWAP2 POP POP PUSH1 0x40 MLOAD DUP1 SWAP2 SUB SWAP1 RETURN JUMPDEST DUP1 PUSH1 0x2 DUP2 SWAP1 SSTORE POP DUP1 PUSH1 0x0 SLOAD DUP2 ISZERO ISZERO PUSH2 0x169 JUMPI INVALID JUMPDEST DIV PUSH1 0x0 DUP2 SWAP1 SSTORE POP POP JUMP JUMPDEST DUP1 PUSH1 0x4 DUP2 SWAP1 SSTORE POP DUP1 PUSH1 0x0 SLOAD SUB PUSH1 0x0 DUP2 SWAP1 SSTORE POP POP JUMP JUMPDEST DUP1 PUSH1 0x1 DUP2 SWAP1 SSTORE POP DUP1 PUSH1 0x0 SLOAD MUL PUSH1 0x0 DUP2 SWAP1 SSTORE POP POP JUMP JUMPDEST DUP1 PUSH1 0x0 DUP2 SWAP1 SSTORE POP POP JUMP JUMPDEST DUP1 PUSH1 0x3 DUP2 SWAP1 SSTORE POP DUP1 PUSH1 0x0 SLOAD ADD PUSH1 0x0 DUP2 SWAP1 SSTORE POP POP JUMP JUMPDEST PUSH1 0x0 DUP1 SLOAD SWAP1 POP SWAP1 JUMP STOP LOG1 PUSH6 0x627A7A723058 KECCAK256 LOG1 0xb5 STOP 0x2c CREATE PUSH27 0xDA87F23431C26B9090DA54BB0F2914FA1097F0963CB5B1D117A200 0x29 "
		},
		"gasEstimates": {
			"creation": {
				"codeDepositCost": "99400",
				"executionCost": "142",
				"totalCost": "99542"
			},
			"external": {
				"AddAmount(uint256)": "40486",
				"Divider(uint256)": "40423",
				"Integer(uint256)": "20244",
				"Multiplier(uint256)": "40444",
				"SubtractAmount(uint256)": "40420",
				"getAnswer()": "504"
			}
		},
		"methodIdentifiers": {
			"AddAmount(uint256)": "7d89f040",
			"Divider(uint256)": "4793504e",
			"Integer(uint256)": "6a270ba1",
			"Multiplier(uint256)": "5677abcc",
			"SubtractAmount(uint256)": "53a454e0",
			"getAnswer()": "9c16667c"
		}
	},
	"abi": [
		{
			"constant": false,
			"inputs": [
				{
					"name": "divideAmount",
					"type": "uint256"
				}
			],
			"name": "Divider",
			"outputs": [],
			"payable": false,
			"stateMutability": "nonpayable",
			"type": "function"
		},
		{
			"constant": false,
			"inputs": [
				{
					"name": "subtractAmount",
					"type": "uint256"
				}
			],
			"name": "SubtractAmount",
			"outputs": [],
			"payable": false,
			"stateMutability": "nonpayable",
			"type": "function"
		},
		{
			"constant": false,
			"inputs": [
				{
					"name": "multiplyAmount",
					"type": "uint256"
				}
			],
			"name": "Multiplier",
			"outputs": [],
			"payable": false,
			"stateMutability": "nonpayable",
			"type": "function"
		},
		{
			"constant": false,
			"inputs": [
				{
					"name": "theNumber",
					"type": "uint256"
				}
			],
			"name": "Integer",
			"outputs": [],
			"payable": false,
			"stateMutability": "nonpayable",
			"type": "function"
		},
		{
			"constant": false,
			"inputs": [
				{
					"name": "addAmount",
					"type": "uint256"
				}
			],
			"name": "AddAmount",
			"outputs": [],
			"payable": false,
			"stateMutability": "nonpayable",
			"type": "function"
		},
		{
			"constant": true,
			"inputs": [],
			"name": "getAnswer",
			"outputs": [
				{
					"name": "",
					"type": "uint256"
				}
			],
			"payable": false,
			"stateMutability": "view",
			"type": "function"
		}
	]
}